:0200000480007A
:10007400130101FE232E1100232C8100232A910059
:10008400232821012326310137150000130505809B
:1000940073104530732500301365850073100530E7
:1000A400370500C0832505060326450693954500BC
:1000B400B385C50037860000130606E0B385C50086
:1000C40013910501B71100C093810180832F400172
:1000D400939F2F0023A4F1870325C0001315250047
:1000E40023A6A186032F0001B70700C093081000C0
:1000F400131F2F0023AAE187832EC001130E2000B3
:10010400939E2E0023A8D1870327400013031000D9
:100114001308300023ACE18603A7070083A547003A
:1001240003A7870083A6071003A647109303F001D3
:10013400630817076308071C630EC70F63140705DA
:100144001397350063ECD3003386EE00832006005A
:10015400B396D800B3E616002320D6001307470051
:100164003387EE00832607009386F6FF2320D7000B
:10017400639A060023A0071023A2B70023A4C70193
:1001840023A0170123A0070203A7070083A54700A4
:1001940003A7870083A6071003A64710E31C17F9DB
:1001A400139725003307E5008324070083294700BC
:1001B40013860400B38499406374361B931026009D
:1001C400B380E0011309000003A400001306160025
:1001D4009380400013071400131727003307E5002A
:1001E400832607000327C7FF3387E64063E6E4005E
:1001F4006376B4006394E40013091900E36636FDE2
:1002040013973500130747003387EE008326070052
:100214003389260123202701E31609F623A00710BA
:1002240023A2B70023A4C70123A0070023A0070229
:100234006FF09FF593904500B3801F00639E0610F6
:10024400139735003387EE000327070013090000D6
:1002540013761700630A0600135717001376170066
:1002640013091900E31A06FE23A0200113972500A1
:100274003307E5000324070083244700138716018E
:10028400B384844063E6E40C637A970023A0E71008
:1002940023A2B70023A4C70123A00700B3868600C6
:1002A4003304E400E3F086EE93962600131424004E
:1002B400B386E6013304E40183A006009386460076
:1002C40013871000131727003307E50003260700E0
:1002D4000327C7FF3307E64063669700639EE40085
:1002E40063FC150023A2B71023A0271123A2170033
:1002F40023A4070123A00700E39086FC23A00702A0
:100304006FF09FE803A78187138616016360C70215
:10031400637CE60423A0C7101397060123A2E70019
:1003240023A4070023A007001307060013868700F1
:10033400E3FAE6E423A2D7002320660023A0070003
:1003440093861600E398E6FE23A007026FF0DFE32E
:10035400138704006FF09FF403A900006FF01FF1EE
:10036400130900006FF0DFE9130706006FF01FFCAC
:10037400972100009381C18B1385C1841386018862
:100384003306A64093050000EF0000661705000041
:100394001305C555EF000054EF00005B0325010071
:1003A4009305410013060000EFF09FCC6F00002C72
:1003B40067800000371500803717008093070543D6
:1003C40013070743630CF70037030000130303000C
:1003D40063060300130505436700030067800000FC
:1003E40037150080930705433717008093050743AB
:1003F400B385F54093D5254093D7F501B385B70070
:1004040093D51540638C05003703000013030300E4
:1004140063060300130505436700030067800000BB
:10042400130101FF2324810083C7C1842326110003
:1004340063960702EFF01FF8B707000093870700E1
:10044400638A070037150080130505B697000080FE
:10045400E78000BB930710002386F1848320C1004A
:10046400032481001301010167800000B707000025
:10047400938707006386070237150080130101FF85
:1004840093850185130505B6232611009700008086
:10049400E78000B78320C100130101016FF05FF40E
:1004A4006FF01FF4B70700C023A0070267800000A5
:1004B400B70700C023A8A70223AAB70267800000D9
:1004C400B70700C023A2C70023A4A70023A0B70036
:1004D40067800000B70700C023A0D71023A2C7007D
:1004E40023A4A70023A0B70067800000B70700C0BB
:1004F40023A2E71023A0D71023A2C70023A4A70098
:1005040023A0B70067800000370800C02324F81038
:100514002322E8102320D8102322C8002324A80073
:100524002320B80067800000B70800C023A6081184
:1005340023A4F81023A2E81023A0D81023A2C800F3
:1005440023A4A80023A0B80067800000B70700C058
:1005540003A7070023A0E50003A747002320E60024
:1005640083A787002320F50067800000B70700C039
:1005740003A7070023A0E50003A747002320E60004
:1005840003A787002320E50083A7071023A0F60014
:1005940067800000B70700C003A8070023A0050177
:1005A40083A547002320B60003A687002320C500A7
:1005B40003A6071023A0C60083A747102320F70033
:1005C40067800000370800C08328080023A01501B5
:1005D400832548002320B600032688002320C50075
:1005E4000326081023A0C600832648102320D70022
:1005F4000327881023A0E70067800000B70800C025
:1006040003A3080023A0650083A548002320B600A7
:1006140003A688002320C50003A6081023A0C60053
:1006240083A648102320D70003A7881023A0E7003F
:1006340083A7C8102320F80067800000B70700C014
:1006440003A8070023A0050183A547002320B600C3
:1006540003A687002320C50003A6071023A0C60015
:1006640083A747102320F7006780000067800000FD
:1006740003A78187930716016362F70263F4E70413
:10068400370700C02320F710931606012322D70052
:100694002324070023200700138707006372E60260
:1006A400B70700C0938587009306100023A2C700F4
:1006B40023A0D50023A0070013061600E368E6FE76
:1006C40067800000138707006FF05FFD03AEC186EB
:1006D40093972500B307FE0003A8070003A3470070
:1006E400930608003308034163F4660883A741872F
:1006F40013962600930800003386C70003250600DE
:100704009386160013064600930715009397270057
:10071400B307FE0003A7070083A7C7FFB307F7408B
:100724006366F8006376B5006314F80093881800D4
:10073400E3E666FC03A70187939735009387470098
:100744003307F70083270700B38817012320170115
:10075400639E0800B70700C023A0071023A2B700B8
:100764001307200023A4E70023A0070067800000EC
:10077400930800006FF01FFC83A7818693964500C1
:10078400B386D7006314060E83A701871397350039
:1007940093080000B387E70083A7070013F7170047
:1007A400630A070093D7170013F7170093881800FC
:1007B400E31A07FE23A0160103AEC1861397250092
:1007C400930716013307EE000323070003284700AD
:1007D400330868406368F80863FE0701370700C000
:1007E4002320F7102322B700930620002324D700E8
:1007F4002320070033066600B307F3006372F6068E
:1008040003A3418713162600939727003307C300D9
:10081400930E30003303F300370600C003250700AE
:10082400130747009307150093972700B307FE00AB
:1008340083A6070083A7C7FFB387F64063E60701D3
:10084400631EF80063FCA5002322B61023201611B2
:100854002322A6002324D60123200600E310E3FC70
:1008640067800000930708006FF0DFF883A8060094
:100874006FF09FF49306F00183A701871397350067
:1008840063EEC6003385E7000328050093061000D5
:100894003396C600336606012320C50013074700BC
:1008A400B387E70003A707001307F7FF23A0E700B8
:1008B40063100702B70700C023A0071023A2B700E4
:1008C4001307200023A4E7001307100023A0E70068
:1008D40067800000930505009306000013060000DE
:1008E400130500006F00001E130101FF2324810083
:1008F4002322910037140080B714008093874400AA
:10090400130484003304F4402326110013542440B8
:1009140063020402931424009384C4FFB384F40098
:1009240083A704001304F4FF9384C4FFE780070043
:10093400E31804FE032481008320C10083244100C2
:10094400130101016FF0DFA6130101FF23248100CD
:1009540023202101371400803719008093070400F5
:10096400130909003309F9402326110023229100B9
:10097400135929406300090213040400930400007E
:10098400832704009384140013044400E7800700C1
:10099400E31899FEEFF0DFA13714008037190080C7
:1009A40093070400130949003309F94013592940F6
:1009B4006300090213040400930400008327040065
:1009C4009384140013044400E7800700E31899FE9D
:1009D4008320C100032481008324410003290100F2
:1009E40013010101678000001303F00013070500E1
:1009F400637EC3029377F7006390070A6392050846
:100A0400937606FF1376F600B386E6002320B7003C
:100A14002322B7002324B7002326B70013070701B6
:100A2400E366D7FE6314060067800000B306C34084
:100A34009396260097020000B38656006780C6008E
:100A44002307B700A306B7002306B700A305B70022
:100A54002305B700A304B7002304B700A303B7001A
:100A64002303B700A302B7002302B700A301B70012
:100A74002301B700A300B7002300B700678000007C
:100A840093F5F50F93968500B3E5D500939605018C
:100A9400B3E5D5006FF0DFF69396270097020000C8
:100AA400B386560093820000E78006FA9380020022
:100AB400938707FF3307F7403306F600E378C3F65E
:100AC4006FF0DFF303A7418483278714638C070443
:100AD40003A747001308F001634EE8061318270024
:100AE40063060502338307012324C30883A88718F8
:100AF400130610003316E600B3E8C80023A4171940
:100B04002324D310930620006304D502130717008F
:100B140023A2E700B387070123A4B700130500004D
:100B2400678000009307C7142324F7146FF05FFA5B
:100B340083A6C7181307170023A2E70033E6C600ED
:100B440023A6C718B387070123A4B7001305000021
:0C0B5400678000001305F0FF67800000C0
:040B60000000000091
:0410000070040080F8
:041004002404008040
:1010080000000000F41200805C130080C41300800C
:1010180000000000000000000000000000000000C8
:1010280000000000000000000000000000000000B8
:1010380000000000000000000000000000000000A8
:101048000000000000000000000000000000000098
:101058000000000000000000000000000000000088
:101068000000000000000000000000000000000078
:101078000000000000000000000000000000000068
:101088000000000000000000000000000000000058
:101098000000000000000000000000000000000048
:1010A8000000000000000000010000000000000037
:1010B8000E33CDAB34126DE6ECDE05000B000000FC
:1010C8000000000000000000000000000000000018
:1010D8000000000000000000000000000000000008
:1010E80000000000000000000000000000000000F8
:1010F80000000000000000000000000000000000E8
:1014300000000000040000001C000000100000007C
:101440000C00000014000000640000C0600000C038
:10145000400000C0500000C0340000C0300000C098
:10146000200000C0000100C0080000C0040000C04F
:0C147000000000C0081000800810008080
:040000058000037400
:00000001FF
