:0200000480007A
:10007400130101FD2326110223248102232291026C
:1000840023202103232E3101232C4101232A510152
:100094002328610123267101232481012322910154
:1000A40037150000130505807310453073250030A3
:1000B4001365850073100530370500C083250506D8
:1000C4000326450693954500B385C5003786000091
:1000D400130606E0B385C50013910501B71100C0EE
:1000E40093810180032E4001131E2E0023A0C1CB57
:1000F4008328C000B70E01009398280023A411CBD5
:10010400032F0001B7050001131F2F0023A6E1CB25
:1001140003284002B70700C083A90700131828006A
:1001240023A801CB0323000203A6470013132300D3
:1001340023A261CA03A7870083A4071083A64710DC
:10014400938EFEFF13051000930F200093023000DE
:100154009303400093005000130460009385F5FF5F
:10016400630C0718631CA71693162600B306D30066
:1001740003A7060083A946003387E40063503717BA
:1001840093162700B306D80003A9060093061700A8
:10019400135A8901137A3A0023A2471123A00710A6
:1001A40023A2C70023A407003379B90023A02701A1
:1001B40063D6361393962600B306D80003A9060027
:1001C400130A2700935A890193FA3A0023A257117C
:1001D40023A0071023A2C70023A407003379B90082
:1001E40023A02701635C3A0F03A94600130A3700D2
:1001F400935A890193FA3A0023A2571123A00710B6
:1002040023A2C70023A407003379B90023A0270140
:1002140063563A0D03A98600130A4700935A8901CD
:1002240093FA3A0023A2571123A0071023A2C70070
:1002340023A407003379B90023A0270163503A0BA4
:1002440003A9C600130A5700935A890193FA3A0086
:1002540023A2571123A0071023A2C70023A4070039
:100264003379B90023A02701635A3A0703A9060189
:10027400130A6700935A890193FA3A0023A257118B
:1002840023A0071023A2C70023A407003379B900D1
:1002940023A0270163543A0583A646011307770078
:1002A40013D986011379390023A2271123A007103B
:1002B40023A2C70023A40700B3F6B60023A0D700E7
:1002C400635E370123A207109384740023A0971060
:1002D40023A2C70023A4A70023A0D70023A00702BA
:1002E40083A9070003A6470003A7870083A4071078
:1002F40083A64710E31807E613162600330BCE0037
:10030400032A0B0013570A01135C4A01935B6A0129
:10031400935A8A013379DA0113777700137C3C000E
:1003240093FB3B0093FA3A00638804006398A4109B
:10033400138C060093860B00630C070E6306A70E4E
:10034400938BF6FF9304FCFF93BB1B0093B4140040
:10035400630AF70F63025712630C771263081714CA
:10036400B3FC7401630E870E63920C10631C0C08BB
:10037400638A0B08930B0000930400001317070112
:1003840033672701939666013367D700131C4C012A
:1003940023A867033367870123AA470333677701D9
:1003A4002320EB00E38C9AF2130A4600338A4801B7
:1003B4003386C8000326060003270A00E350E6F24A
:1003C40093162600B3093901B386E60103A7060094
:1003D40023A29710130616001379170023A02711E0
:1003E4001357174023A2E70023A4070023A03701D3
:1003F40003270A0093864600E34AE6FC23A007028B
:100404006FF01FEE63940600E39604F6B36CDC0011
:10041400B70B000193041000E3820CF6B70B000243
:10042400930420006FF09FF5638E0604E384E6F4E2
:10043400939B8601938406006FF05FF493860B0010
:100444006FF09FEF63840400E3960BF2638006026F
:10045400630E0C0093040700B70B00026FF01FF249
:10046400E39A0CF063120C0663800B06B70B0001D1
:10047400930410006FF09FF0E39E04EEE3880BF802
:100484006FF05FEF93041000B70B00016FF01FEFE4
:1004940063840400E39C0BFCE38E06ECE30C0CEC9D
:1004A400B70B0002930420006FF05FEDE39004FCAF
:1004B400E39E0BFAB364DC00E38204ECB70B0002A6
:1004C400930420006FF09FEB63940600E39004FA1A
:1004D400B364DC00930B0000E38204EAB70B000270
:1004E400930420006FF09FE997070080938747B13A
:1004F40063880700170500001305457F6F00807DA2
:1005040067800000970100409381812F138541C8C3
:10051400138681CD3306A64093050000EF00500CEE
:10052400170500001305857CEF00C07AEF00D001A9
:10053400032501009305410013060000EFF05FB3AB
:100544006FF05FFC67800000138581C2938781C2CE
:10055400638AA70017030080130383AA63040300BC
:100564006700030067800000138581C2938581C200
:10057400B385A54093D5254093D7F501B385B7003E
:1005840093D51540638A050017030080130343A71E
:1005940063040300670003006780000083C741C849
:1005A40063900704130101FF23261100EFF0DFF924
:1005B400970700809387C7A4638A07001715000074
:1005C400130585B597000080E78080A38320C100D0
:1005D400930710002382F1C8130101016780000012
:1005E4006780000097070080938787A163860702CE
:1005F400130101FF938581C8171500001305C5B1C8
:100604002326110097000080E780809F8320C1008B
:10061400130101016FF05FF56FF01FF5B70700C01C
:1006240023A0070267800000B70700C023A8A70221
:1006340023AAB70267800000B70700C023A2C7003F
:1006440023A4A70023A0B70067800000B70700C059
:1006540023A0D71023A2C70023A4A70023A0B70078
:1006640067800000B70700C023A2E71023A0D710BB
:1006740023A2C70023A4A70023A0B700678000001B
:10068400370800C02324F8102322E8102320D810B0
:100694002322C8002324A8002320B8006780000078
:1006A400B70800C023A6081123A4F81023A2E81059
:1006B40023A0D81023A2C80023A4A80023A0B80014
:1006C40067800000B70700C003A7070023A0E50068
:1006D40003A747002320E60083A787002320F50013
:1006E40067800000B70700C003A7070023A0E50048
:1006F40003A747002320E60003A787002320E50083
:1007040083A7071023A0F60067800000B70700C086
:1007140003A8070023A0050183A547002320B600F2
:1007240003A687002320C50003A6071023A0C60044
:1007340083A747102320F70067800000370800C014
:100744008328080023A01501832548002320B60030
:10075400032688002320C5000326081023A0C60012
:10076400832648102320D7000327881023A0E700FE
:1007740067800000B70800C003A3080023A0650039
:1007840083A548002320B60003A688002320C500C3
:1007940003A6081023A0C60083A648102320D70070
:1007A40003A7881023A0E70083A7C8102320F8001C
:1007B40067800000B70700C003A8070023A0050155
:1007C40083A547002320B60003A687002320C50085
:1007D40003A6071023A0C60083A747102320F70011
:1007E4006780000083A741CA13972500B387E700F9
:1007F40003A7070003A847003307E600635A071757
:1008040083A601CB13152700B70700C03385A600C4
:1008140083280500B70600019386F6FF13D38801E9
:100824001373330023A2671023A0071023A2B70079
:10083400B3F8D80023A4070023A0170193081700D6
:1008440063D60813832845001303270013DE8801A9
:10085400137E3E0023A2C71123A0071023A2B700D2
:1008640023A40700B3F8D80023A017016350031191
:10087400832885001303370013DE8801137E3E00AE
:1008840023A2C71123A0071023A2B70023A40700A3
:10089400B3F8D80023A01701635A030D8328C500B9
:1008A4001303470013DE8801137E3E0023A2C71101
:1008B40023A0071023A2B70023A40700B3F8D8008D
:1008C40023A017016354030B832805011303570066
:1008D40013DE8801137E3E0023A2C71123A0071054
:1008E40023A2B70023A40700B3F8D80023A017015C
:1008F400635E0307832845011303670013DE880141
:10090400137E3E0023A2C71123A0071023A2B70021
:1009140023A40700B3F8D80023A0170163580305E4
:1009240003258501130777009358850193F8380050
:1009340023A2171123A0071023A2B70023A40700A2
:10094400B376D50023A0D7006352070323A2071070
:100954001306760023A0C71023A2B70013071000C4
:1009640023A4E70023A0D70067800000678000006D
:100974006780000093070500630A0604130710004C
:10098400630EE602130720006306E6061307300031
:100994006302E60413074000630EE60A13075000DF
:1009A400630CE60C130760006308E60E130770007F
:1009B400130520006304E606678000001305100099
:1009C400E38C07FE13050000E388C7FE13850700C8
:1009D400678000001307F5FF630A07061387F5FF16
:1009E4006306070633E5B7003335A0001305150089
:1009F400678000001307F5FF631807001387F5FFEE
:100A040013050000E30A07FA6386070013050600CE
:100A1400E39405FA13051000678000001387F7FFBD
:100A24009386F5FF1337170093B616006306070085
:100A340013051000E39206F8639605001305000001
:100A4400E31C07F6E39007FAE38E06F813050000AB
:100A5400678000001307F5FF631807001387F5FF8D
:100A640013051000E30A07F4E38207FE13052000D0
:100A7400E38E05FC678000001307F5FFE30C07F81D
:100A84001387F5FFE30807F833E5B700E30605F23B
:100A940013052000678000001307F5FF9386F5FF18
:100AA4001337170093B616006306070013050000FA
:100AB400E39406F06396050013051000E31E07EEA9
:100AC400E39407FC13051000E38006FC6780000034
:100AD40003AE01CA93952500330EBE00832E0E008B
:100AE40013DF0E0113D34E0113D86E0193D88E0178
:100AF40013970E0193777F00135707011373330085
:100B04001378380013FF3800630A060093081000B6
:100B1400631A1613138306009306080063860708F6
:100B2400130610006388C7061386F6FF1308F3FF45
:100B3400930820001336160013381800638E171319
:100B440093083000638417119308400063841715D9
:100B540093085000638A1715930F6000B378060159
:100B64006380F7116394081063140300631806028A
:100B740063940600631408023366D3003708000147
:100B84009308100063060602370800029308200049
:100B94006F0000026380060C6398F60013080000DF
:100BA400930800006F00C000139886019388060024
:100BB4009397070193966601B3E7E700370600C0F1
:100BC400B3E7D700931643012328C603B3E7D7003E
:100BD400232AD603B3E707012320FE0063021F077D
:100BE40003A881CA93874500B305B8003308F80009
:100BF40083A605008327080063D4F60483A7C1CA2B
:100C0400139626003305A7003386C700B70700C034
:100C14000327060023A21711938616009375170065
:100C240023A0B7101357174023A2E70023A40700FB
:100C340023A0A7000327080013064600E3CAE6FC26
:100C440067800000930608006FF05FEDE30406F28E
:100C54006FF0DFF493081000370800016FF05FF5C0
:100C6400E39E08F2631C0304630A060437080001C8
:100C7400930810006FF0DFF363040600E31008F23A
:100C8400E38606FEE30403FE9388070037080002A8
:100C94006FF01FF263040600E31A08FCE38006F019
:100CA400E31403EE6FF09FEFE31206FCE31008FC7D
:100CB400B368D300E38E08EE6FF01FED6394060073
:100CC400E31608FAB368D30013080000E38208EEC1
:100CD4006FF09FEB930505009306000013060000D8
:100CE400130500006F00801D130101FF2324810000
:100CF4009717000093870743171400001304C44296
:100D04003304F44023261100232291001354244079
:100D140063020402931424009384C4FFB384F40094
:100D240083A704001304F4FF9384C4FFE78007003F
:100D3400E31804FE032481008320C10083244100BE
:100D4400130101016FF01F80130101FF23248100AF
:100D540023202101171400001304443C1719000038
:100D64001309C93B3309894023261100232291002A
:100D740013592940630E09009304000083270400DB
:100D84009384140013044400E7800700E31899FED9
:100D94001714000013048438171900001309893844
:100DA4003309894013592940EFF0CFF9630E090044
:100DB4009304000083270400938414001304440064
:100DC400E7800700E31899FE8320C1000324810013
:100DD40083244100032901001301010167800000FD
:100DE4001303F00013070500637EC3029377F70033
:100DF4006390070A63920508937606FF1376F6005C
:100E0400B386E6002320B7002322B7002324B700CB
:100E14002326B70013070701E366D7FE6314060011
:100E240067800000B306C340939626009702000033
:100E3400B38656006780C6002307B700A306B70031
:100E44002306B700A305B7002305B700A304B70022
:100E54002304B700A303B7002303B700A302B7001A
:100E64002302B700A301B7002301B700A300B70012
:100E74002300B7006780000093F5F50F9396850073
:100E8400B3E5D50093960501B3E5D5006FF0DFF621
:100E94009396270097020000B386560093820000C1
:100EA400E78006FA93800200938707FF3307F74031
:100EB4003306F600E378C3F66FF0DFF3130101FEA7
:100EC400232C81001384C1C7232A910093040500B5
:100ED4000325040023282101232631012324410171
:100EE400232E110013890500130A060093890600B6
:100EF400EF004020970700009387C72103A707004E
:100F0400832787146386070803A747001308F001A3
:100F1400032504006344E80813182700639E0402B1
:100F24001307170023A2E700B387070123A42701AF
:100F3400EF00C01D130500008320C10103248101BB
:100F440083244101032901018329C100032A81006B
:100F54001301010267800000B385070123A445093A
:100F640083A68718130610003316E600B3E6C600FE
:100F740023A4D71823A4351193062000E392D4FAAE
:100F840083A6C71833E6C60023A6C7186FF05FF917
:100F94009307C7142324F7146FF01FF7EF0000170B
:100FA4001305F0FF6FF05FF9130101FD23286101C0
:100FB400138BC1C7232A5101930A050003250B0093
:100FC400232E3101232C4101232671012322910177
:100FD40023261102232481022322910223202103A8
:100FE40023248101938B0500EF00C01097070000B4
:100FF4009387471283AC0700130A10009309F0FF8C
:1010040003A98C1463080902832449001384F4FFA0
:101014006342040293942400B304990063880B048C
:1010240083A74410638477051304F4FF9384C4FFF7
:10103400E31634FF0324810203250B008320C1023D
:1010440083244102032901028329C101032A810166
:10105400832A4101032B0101832BC100032C81004E
:10106400832C4100130101036F00400A83274900C8
:1010740083A644009387F7FF638A870423A20400AE
:10108400E38406FA8327891833178A00032C49005E
:10109400B377F700639E0700E780060083274900C3
:1010A400E39087F783A78C14E38027F96FF05FF54B
:1010B4008327C91883A544083377F700631C070006
:1010C40013850A00E78006006FF05FFD2322890084
:1010D4006FF01FFB13850500E78006006FF01FFC0F
:1010E4006780000067800000678000006780000060
:1010F400678000006780000013051000678000000F
:1011040013051000678000006780000067800000FE
:04111400000000C017
:0411180000000000D3
:08211C00EC040080E8050080DE
:04212400A005008092
:02000004C0003A
:1000000000000000EC0200C0540300C0BC0300C0AC
:1000100000000000000000000000000000000000E0
:1000200000000000000000000000000000000000D0
:1000300000000000000000000000000000000000C0
:1000400000000000000000000000000000000000B0
:1000500000000000000000000000000000000000A0
:100060000000000000000000000000000000000090
:100070000000000000000000000000000000000080
:100080000000000000000000000000000000000070
:100090000000000000000000000000000000000060
:1000A000000000000000000001000000000000004F
:1000B0000E33CDAB34126DE6ECDE05000B00000014
:1000C0000000000000000000000000000000000030
:1000D0000000000000000000000000000000000020
:1000E0000000000000000000000000000000000010
:1000F0000000000000000000000000000000000000
:1004280003000000020000000100000000000000BE
:100438002400000020000000100000000C00000054
:1004480014000000640000C0600000C0400000C04C
:10045800500000C0340000C0300000C0200000C0C0
:10046800000100C0080000C0040000C0000000C077
:0C04780000000000B40400C0000000C040
:04000005800005086A
:00000001FF
