:0200000480007A
:10007400130101FE232E1100232C8100232A910059
:1000840023282101232631012324410137150000AF
:100094001305058073104530732500301365850002
:1000A40073100530370500C0832505060326450671
:1000B40093954500B385C50037860000130606E016
:1000C400B385C50013910501B71100C09381018068
:1000D400832740019397270023A0F1CA8327C000F8
:1000E400370400C09397270023A4F1CA8327000193
:1000F4009397270023A6F1CA83274002032504000F
:10010400832544009397270023A8F1CA832700027C
:1001140037090001930910009397270023A2F1CA1D
:100124008327840003260410832644101309F9FF4F
:100134006380071A6390371903A741CA9397250070
:100144003307F7008327070083264700B307F60029
:1001540063D2D71603A701CB139527001388170082
:100164003305A700032505009358850193F838004B
:1001740023221411232004102322B4002324040076
:10018400337525012320A4006356D81213182800C0
:1001940033070701032507001388270093588501B7
:1001A40093F8380023221411232004102322B400CE
:1001B40023240400337525012320A400635CD80E96
:1001C40003254700138837009358850193F83800B6
:1001D40023221411232004102322B4002324040016
:1001E400337525012320A4006356D80C032587000A
:1001F400138847009358850193F83800232214117B
:10020400232004102322B400232404003375250181
:100214002320A4006350D80A0325C700138857007D
:100224009358850193F838002322141123200410D5
:100234002322B40023240400337525012320A400C1
:10024400635AD8060325070113886700935885016C
:1002540093F8380023221411232004102322B4001D
:1002640023240400337525012320A4006354D804F7
:1002740003274701938777001355870113753500CA
:100284002322A410232004102322B40023240400D6
:10029400337727012320E40063DED70023220410F0
:1002A400130676002320C4102322B400232434012F
:1002B4002320E400232004020325040083254400B2
:1002C400832784000326041083264410E39407E65E
:1002D400EF00405E232004026FF01FFE97010040F0
:1002E40093810152138541C8138681CB3306A640FE
:1002F40093050000EF00100F170500001305C57EDD
:10030400EF00007DEF001004032501009305410078
:1003140013060000EFF0DFD56F00002B67800000AC
:10032400938781C2138781C2630CF70037030000EF
:100334001303030063060300138581C267000300EF
:1003440067800000938781C2938581C2B385F5409D
:1003540093D5254093D7F501B385B70093D51540C0
:10036400638C0500370300001303030063060300D6
:10037400138581C26700030067800000130101FF39
:100384002324810083C741C82326110063960702F2
:10039400EFF01FF9B707000093870700638A07008F
:1003A400371500801305C5D597000080E78040C548
:1003B400930710002382F1C88320C1000324810025
:1003C4001301010167800000B7070000938707004D
:1003D4006386070237150080130101FF938581C8E6
:1003E4001305C5D52326110097000080E78040C17E
:1003F4008320C100130101016FF0DFF46FF09FF45B
:10040400B70700C023A0070267800000B70700C039
:1004140023A8A70223AAB70267800000B70700C079
:1004240023A2C70023A4A70023A0B700678000006D
:10043400B70700C023A0D71023A2C70023A4A70096
:1004440023A0B70067800000B70700C023A2E7100D
:1004540023A0D71023A2C70023A4A70023A0B7007A
:1004640067800000370800C02324F8102322E81016
:100474002320D8102322C8002324A8002320B80056
:1004840067800000B70800C023A6081123A4F81051
:1004940023A2E81023A0D81023A2C80023A4A800F4
:1004A40023A0B80067800000B70700C003A70700B7
:1004B40023A0E50003A747002320E60083A78700C5
:1004C4002320F50067800000B70700C003A70700DA
:1004D40023A0E50003A747002320E60003A7870025
:1004E4002320E50083A7071023A0F60067800000FF
:1004F400B70700C003A8070023A0050183A5470090
:100504002320B60003A687002320C50003A60710F6
:1005140023A0C60083A747102320F70067800000AC
:10052400370800C08328080023A01501832548004C
:100534002320B600032688002320C50003260810C4
:1005440023A0C600832648102320D7000327881041
:1005540023A0E70067800000B70800C003A30800D9
:1005640023A0650083A548002320B60003A68800C5
:100574002320C50003A6081023A0C60083A64810A4
:100584002320D70003A7881023A0E70083A7C8105F
:100594002320F80067800000B70700C003A8070005
:1005A40023A0050183A547002320B60003A68700E6
:1005B4002320C50003A6071023A0C60083A7471065
:1005C4002320F700678000006780000083A741CAEA
:1005D40013972500B387E70003A7070003A8470084
:1005E4003307E600635A071783A601CB13152700C8
:1005F400B70700C03385A60083280500B7060001AD
:100604009386F6FF13D388011373330023A2671074
:1006140023A0071023A2B700B3F8D80023A407002F
:1006240023A017019308170063D6081383284500F5
:100634001303270013DE8801137E3E0023A2C71193
:1006440023A0071023A2B70023A40700B3F8D800FF
:1006540023A0170163500311832885001303370077
:1006640013DE8801137E3E0023A2C71123A00710C6
:1006740023A2B70023A40700B3F8D80023A01701CE
:10068400635A030D8328C5001303470013DE880152
:10069400137E3E0023A2C71123A0071023A2B70094
:1006A40023A40700B3F8D80023A017016354030B55
:1006B400832805011303570013DE8801137E3E00CF
:1006C40023A2C71123A0071023A2B70023A4070065
:1006D400B3F8D80023A01701635E030783284501FC
:1006E4001303670013DE8801137E3E0023A2C711A3
:1006F40023A0071023A2B70023A40700B3F8D8004F
:1007040023A0170163580305032585011307770008
:100714009358850193F8380023A2171123A00710DA
:1007240023A2B70023A40700B376D50023A0D700E3
:100734006352070323A207101306760023A0C710F1
:1007440023A2B7001307100023A4E70023A0D700B7
:10075400678000006780000067800000630206086D
:10076400930710006308F606930720006300F60A57
:1007740093073000630CF60693074000630AF60AF9
:1007840093075000630CF610930760006306F60CA1
:1007940013077000930720006316E6041307F5FFA0
:1007A4009387F5FF1337170093B617006306070006
:1007B40093071000639806026396050093070000F0
:1007C40063120702631C0502638A06029307000092
:1007D4006F00400163080500930700006304C5002F
:1007E4009307050013850700678000009307F5FF52
:1007F400E38E07FC9387F5FFE38A07FCB367B50034
:10080400B337F000938717006FF0DFFD9307F5FF10
:10081400639607001387F5FFE30607FC63060500EC
:1008240093070600E39005FC930710006FF09FFB0D
:100834009307F5FF639807001387F5FF93071000EC
:10084400E30207FAE30405F893072000E39C05F8A4
:10085400930700006FF01FF91307F5FF9387F5FF67
:100864001337170093B617006306070093070000B9
:10087400E39A06F66396050093071000E31407F65F
:100884006316050093071000E39E06F4B367B500F2
:10089400E38A07F4930720006FF0DFF49307F5FF72
:1008A400E38407F89387F5FFE39207FE93071000AC
:1008B4006FF05FF303AF01CA93952500330FBF00B8
:1008C400832E0F0013D30E0113D74E0113D86E01DC
:1008D40093D88E01139E0E01135E0E01937773005D
:1008E400137737001378380093F83800630A06004A
:1008F40013031000631466001387060093060800B0
:100904006382070813061000638AC7061388F6FF7C
:100914001306F7FF13032000933F18001336160045
:10092400638A671013083000638C070F13084000B4
:1009340063880717130850006386071913086000BB
:100944003373F601638407136316031063160700F9
:1009540013080000639C0F0263980600130800004C
:1009640013030000631406023366D7006304060E03
:1009740037080002130320006F0040016382060E53
:100984006384F60A1398860113830600939707017C
:10099400B3E7C70193966601370600C0B3E7D700F3
:1009A400131747012328E603B3E7E700232AD603F6
:1009B400B3E707012320FF006382680603A881CA06
:1009C40093874500B305B8003308F80083A60500F3
:1009D4008327080063D4F60483A7C1CA13962600AC
:1009E4003305AE003386C700B70700C003270600EF
:1009F40023A26710938616009375170023A0B710DF
:100A04001357174023A2E70023A4070023A0A7003D
:100A14000327080013064600E3CAE6FC67800000CB
:100A240063140600E3820FF41308000013030000AC
:100A34006FF0DFF5630806001308000013030000DD
:100A4400E3960FF463880600138307003708000257
:100A5400E31E07F237080001130310006FF01FF3C1
:100A640013031000370800016FF05FF2E31E03FA6E
:100A7400631807003708000113031000E3980FF010
:100A8400639806003708000113031000E31006F012
:100A94003363D70013080000E30A03EE6FF05FED41
:100AA400630806003708000113031000E3900FEEFB
:100AB400E38C06F63708000213032000E31807EC62
:100AC4006FF09FF6E31806F8E3840FFC6FF09FF8CD
:100AD40093050500930600001306000013050000AB
:100AE4006F00001E130101FF2324810023229100C3
:100AF40037140080B71400809387440013048400E3
:100B04003304F440232611001354244063020402E6
:100B1400931424009384C4FFB384F40083A70400D3
:100B24001304F4FF9384C4FFE7800700E31804FE72
:100B3400032481008320C1008324410013010101A7
:100B44006FF0CFFD130101FF232481002320210135
:100B54003714008037190080930704001309090033
:100B64003309F94023261100232291001359294007
:100B740063000902130404009304000083270400A3
:100B84009384140013044400E7800700E31899FEDB
:100B9400EFF0CFF837140080371900809307040072
:100BA400130949003309F940135929406300090224
:100BB40013040400930400008327040093841400A6
:100BC40013044400E7800700E31899FE8320C10062
:100BD400032481008324410003290100130101013E
:100BE400678000001303F00013070500637EC3024F
:100BF4009377F7006390070A63920508937606FFDC
:100C04001376F600B386E6002320B7002322B7004C
:100C14002324B7002326B70013070701E366D7FE92
:100C24006314060067800000B306C3409396260051
:100C340097020000B38656006780C6002307B700FA
:100C4400A306B7002306B700A305B7002305B70022
:100C5400A304B7002304B700A303B7002303B7001A
:100C6400A302B7002302B700A301B7002301B70012
:100C7400A300B7002300B7006780000093F5F50FC9
:100C840093968500B3E5D50093960501B3E5D500A9
:100C94006FF0DFF69396270097020000B3865600A4
:100CA40093820000E78006FA93800200938707FF8F
:100CB4003307F7403306F600E378C3F66FF0DFF34B
:100CC40003A7C1C783278714638C070403A74700BE
:100CD4001308F001634EE8061318270063060502A3
:100CE400338307012324C30883A88718130610003D
:100CF4003316E600B3E8C80023A417192324D3103D
:100D0400930620006304D5021307170023A2E7000B
:100D1400B387070123A4B700130500006780000010
:100D24009307C7142324F7146FF05FFA83A6C71838
:100D34001307170023A2E70033E6C60023A6C7184B
:100D4400B387070123A4B7001305000067800000E0
:080D54001305F0FF67800000A9
:040D5C000000000093
:04100000CC0300809D
:0410040080030080E5
:02000004C0003A
:1000000000000000EC0200C0540300C0BC0300C0AC
:1000100000000000000000000000000000000000E0
:1000200000000000000000000000000000000000D0
:1000300000000000000000000000000000000000C0
:1000400000000000000000000000000000000000B0
:1000500000000000000000000000000000000000A0
:100060000000000000000000000000000000000090
:100070000000000000000000000000000000000080
:100080000000000000000000000000000000000070
:100090000000000000000000000000000000000060
:1000A000000000000000000001000000000000004F
:1000B0000E33CDAB34126DE6ECDE05000B00000014
:1000C0000000000000000000000000000000000030
:1000D0000000000000000000000000000000000020
:1000E0000000000000000000000000000000000010
:1000F0000000000000000000000000000000000000
:1004280000000000030000000200000001000000BE
:100438000000000024000000200000001000000060
:100448000C00000014000000640000C0600000C040
:10045800400000C0500000C0340000C0300000C0A0
:10046800200000C0000100C0080000C0040000C057
:0C047800000000C0000000C0000000C038
:04000005800002E095
:00000001FF
