:0200000480007A
:10007400130101FC232E1102232C8102232A910255
:10008400232821032326310323244103232251035C
:1000940023206103232E7101232C8101232A910142
:1000A4002328A1012326B10137150000130505807B
:1000B40073104530732500301365850073100530C7
:1000C400370500C08325050603264506939545009C
:1000D400B385C50037860000130606E0B385C50066
:1000E40013910501B71100C093810180832740015A
:1000F4009397270023A2F1CC8327C000939727006E
:1001040023A6F1CA832700019397270023AAF1CAE3
:100114008327400023A0F1CC8327C001371D008032
:10012400B70C000123A4F1CA83274002371A000048
:10013400130DCDF623AEF1CA0327800293071000F6
:10014400370400C023A8E1CA83264003B397E7001D
:1001540023A6D1CC032700039387F7FF9397870047
:1001640023ACF1CA23A4E1CC938CFCFF930D400093
:10017400130A0A800325040083254400832784008E
:100184000326041083264410130750006362F70803
:1001940093972700B307FD0083A707006780070034
:1001A40003A741CC9397650093182600B307F70083
:1001B4003387170113064600832807011316260008
:1001C4003386C70003A307002328C402232A140389
:1001D400B388D840232817012328F402232A640271
:1001E400B386660023A0D7006314030283A781CAE1
:1001F4006380F50283A7C1CB638CF5002322A4108E
:10020400232004102322B400232404002320A40068
:10021400232004026FF01FF6EF0040632320040242
:100224006FF05FF583A741CC93956500B387B70062
:1002340083A787002322D4102320F4102322C40090
:10024400930720002324F4002320A4002320040285
:100254006FF05FF203A741CC939765003307F70073
:100264006318060483A701CB8326C70093878700FE
:10027400B357F500E3FEF6F89308C70023281403E8
:10028400232AD402832687002326F70093078700B6
:100294002328F402232AD402B37745019376F57F09
:1002A4006386070083A701CCB386F6002324D70016
:1002B40003AEC1CA93972500B307FE0083A60700C7
:1002C40003A34700B306D6009387760063F0670262
:1002D40023220410130676002320C4102322B40022
:1002E4002324B4012320A40013830700E3F266F25D
:1002F40083AE41CB9395360013070701B385BE0047
:100304001305150083A7050003260700B3F897011A
:10031400139F2800330FEE01032F0F0093D787019B
:100324003306C040B387E70193973700B387FE00D5
:1003340083A74700635CF6002322041023200410E3
:10034400232214012324B4012320A400938616003D
:100354009385850013074700E3E666FA2320040229
:100364006FF05FE183A781CBB377F5006388070063
:10037400EF00C017232004026FF0DFDF935745001E
:1003840093F7F700E39E07E6232004108327400237
:100394002322F4002324B4012320A40023200410E6
:1003A4008327C0012322F4002324B401B367450149
:1003B4002320F4006FF0DFE497070080938747C49D
:1003C40063880700170500001305C5776F000076E2
:1003D4006780000097010040938181421385C1C862
:1003E400138681CF3306A64093050000EF00D004A6
:1003F4001705000013050575EF004073EF00407A00
:10040400032501009305410013060000EFF05FC6C9
:100414006FF05FFC67800000138581C2938781C2FF
:10042400638AA70017030080130383BD63040300DA
:100434006700030067800000138581C2938581C231
:10044400B385A54093D5254093D7F501B385B7006F
:1004540093D51540638A050017030080130343BA3C
:1004640063040300670003006780000083C7C1C8FA
:1004740063900704130101FF23261100EFF0DFF955
:10048400970700809387C7B7638A07001715000092
:10049400130585AF97000080E78080B68320C100F4
:1004A400930710002386F1C813010101678000003F
:1004B4006780000097070080938787B463860702EC
:1004C400130101FF938501C9171500001305C5AB7E
:1004D4002326110097000080E78080B28320C100AA
:1004E400130101016FF05FF56FF01FF503A741CC15
:1004F40083A7C1CA939665003307D70083264700B4
:1005040013982500B387070193084700370800C0F4
:1005140083AE070003AE470023281803232AD8021A
:1005240083A601CCB307DE41939787019396160007
:10053400B3E6D700B387CE002322D7001387770012
:100544006370C703130676002320C8102322B80063
:10055400930650002324D8002320A800130E07007C
:1005640063FCC70783A641CB130101FF1396370031
:10057400370700C0370F0001232681003386C600E9
:10058400130FFFFF3304D54193028700930F10002C
:100594008326060003A3C1CCB388D7411308050002
:1005A400B3F6E601630403003308F40023221711B1
:1005B4002320B7102322D70023A0F2012320070110
:1005C4009387170013068600E3E4C7FD0324C100E4
:1005D400130101016780000067800000B70700C0B5
:1005E40023A0070267800000B70700C023A8A70262
:1005F40023AAB70267800000B70700C023A2C70080
:1006040023A4A70023A0B70067800000B70700C099
:1006140023A0D71023A2C70023A4A70023A0B700B8
:1006240067800000B70700C023A2E71023A0D710FB
:1006340023A2C70023A4A70023A0B700678000005B
:10064400370800C02324F8102322E8102320D810F0
:100654002322C8002324A8002320B80067800000B8
:10066400B70800C023A6081123A4F81023A2E81099
:1006740023A0D81023A2C80023A4A80023A0B80054
:1006840067800000B70700C003A7070023A0E500A8
:1006940003A747002320E60083A787002320F50053
:1006A40067800000B70700C003A7070023A0E50088
:1006B40003A747002320E60003A787002320E500C3
:1006C40083A7071023A0F60067800000B70700C0C7
:1006D40003A8070023A0050183A547002320B60033
:1006E40003A687002320C50003A6071023A0C60085
:1006F40083A747102320F70067800000370800C055
:100704008328080023A01501832548002320B60070
:10071400032688002320C5000326081023A0C60052
:10072400832648102320D7000327881023A0E7003E
:1007340067800000B70800C003A3080023A0650079
:1007440083A548002320B60003A688002320C50003
:1007540003A6081023A0C60083A648102320D700B0
:1007640003A7881023A0E70083A7C8102320F8005C
:1007740067800000B70700C003A8070023A0050195
:1007840083A547002320B60003A687002320C500C5
:1007940003A6071023A0C60083A747102320F70051
:1007A4006780000083A781CB1307050093860500AB
:1007B400B377F500638407006FF05FD39357450068
:1007C40093F7F70063900704B70700C023A007104E
:1007D4000326400223A2C7001306400023A4C70037
:1007E40023A0A70023A007108325C00123A2B700DC
:1007F40023A4C70037160000130606803366C5001D
:1008040023A0C700B70700C023A0071023A2D70066
:1008140023A4070023A0E7006780000003A741CCBE
:1008240093956500B70700C03307B7000327870017
:1008340023A2D71023A0E71023A2C7001307200088
:1008440023A4E70023A0A7006780000003A741CCEE
:1008540093976500370800C0B307F70003A7470064
:100864009388470083AE870023281803232AE802CD
:1008740003A8C1CA939825001393260033081801CE
:100884000328080003AE41CB33880601131838004F
:100894009318870033080E0133836700130F160083
:1008A40093D8880013578701832F4800032E030130
:1008B400630ADF0583AE81CA6386BE041307F7FFAC
:1008C4006354FE01636C160B93168701B3E616019D
:1008D40023A2D7006316070203A7070063020702D7
:1008E4009388180023A41701B70700C023A2A710F8
:1008F40023A0071023A2B70023A4070023A0A70066
:100904006780000083A20700338FCF4163E2E207D0
:10091400E3060FFA9386460093962600B70E00C0AE
:10092400B386D7000328080023A8DE0223AACE0337
:10093400330EEE012328C30123A8FE0223AA5E027C
:10094400B382E24123A0570023A2EE11135388017E
:100954009316880023A06E1093D6860023A2DE008F
:100964009306300023A4DE0023A0AE006FF01FF531
:10097400138F0200E3040FF46FF0DFF9930806000D
:100984006FF09FF483A741CC1397650013182600DA
:10099400B387E7003388070113064600832808015C
:1009A40013162600370700C03386C70003A30700C9
:1009B4002328C702232A1703B388D8402328180101
:1009C4002328F702232A6702B306D30023A0D70003
:1009D4006314030283A781CA6380B70283A7C1CBD0
:1009E400638CB7002322A710232007102322B7000B
:1009F400232407002320A7006780000003A741CC1D
:100A0400939765003307F700631A060483A701CBA5
:100A14000328C70093878700B357F5006372F80E65
:100A2400B70600C09308C70023A8160323AA060329
:100A3400032887002326F7009307870023A8F602DC
:100A440023AA0603931645019377F57F63D6060020
:100A540083A601CCB387D7002324F70003AFC1CA10
:100A640093962500B306DF0083A7060003AE460075
:100A7400B307F600138877006366C8091386070076
:100A840063F0C70983AF41CB13183600B70E0001DA
:100A940033880F0193050701938EFEFFB70800C04A
:100AA40093024000130515008327080003A70500DF
:100AB4001306160033F3D70193162300B306DF00A1
:100AC40083A6060093D787013307E040B387D70096
:100AD40093973700B387FF0083A747001308880064
:100AE40093854500635CF70023A2081023A0081037
:100AF40023A2680023A4580023A0A800E366C6FB31
:100B040067800000B70600C023A206101306760013
:100B140023A0C61023A2B6001306400023A4C600D7
:100B240023A0A600130E08006FF05FF593050500DF
:100B34009306000013060000130500006F00801DDB
:100B4400130101FF23248100970700009387C74BFB
:100B5400170400001304844B3304F44023261100CB
:100B640023229100135424406302040293142400AA
:100B74009384C4FFB384F40083A704001304F4FF34
:100B84009384C4FFE7800700E31804FE0324810074
:100B94008320C10083244100130101016FF09F876A
:100BA400130101FF232481002320210117040000E5
:100BB40013040445170900001309894433098940C3
:100BC400232611002322910013592940630E0900A2
:100BD4009304000083270400938414001304440046
:100BE400E7800700E31899FE17040000130444414A
:100BF4001709000013094941330989401359294051
:100C0400EFF05F81630E0900930400008327040062
:100C14009384140013044400E7800700E31899FE4A
:100C24008320C1000324810083244100032901009F
:100C340013010101678000001303F000130705008E
:100C4400637EC3029377F7006390070A63920508F3
:100C5400937606FF1376F600B386E6002320B700EA
:100C64002322B7002324B7002326B7001307070164
:100C7400E366D7FE6314060067800000B306C34032
:100C84009396260097020000B38656006780C6003C
:100C94002307B700A306B7002306B700A305B700D0
:100CA4002305B700A304B7002304B700A303B700C8
:100CB4002303B700A302B7002302B700A301B700C0
:100CC4002301B700A300B7002300B700678000002A
:100CD40093F5F50F93968500B3E5D500939605013A
:100CE400B3E5D5006FF0DFF6939627009702000076
:100CF400B386560093820000E78006FA93800200D0
:100D0400938707FF3307F7403306F600E378C3F60B
:100D14006FF0DFF3130101FE232C8100138441C81B
:100D2400232A9100930405000325040023282101AC
:100D34002326310123244101232E110013890500A8
:100D4400130A060093890600EF004020970700006D
:100D54009387472303A7070083278714638607081D
:100D640003A747001308F001032504006344E808BF
:100D740013182700639E04021307170023A2E70039
:100D8400B387070123A42701EF00C01D130500004A
:100D94008320C1010324810183244101032901012A
:100DA4008329C100032A8100130101026780000026
:100DB400B385070123A4450983A6871813061000E9
:100DC4003316E600B3E6C60023A4D71823A43511CE
:100DD40093062000E392D4FA83A6C71833E6C6002C
:100DE40023A6C7186FF05FF99307C7142324F714D9
:100DF4006FF01FF7EF0000171305F0FF6FF05FF9B6
:100E0400130101FD23286101138B41C8232A5101D9
:100E1400930A050003250B00232E3101232C4101E5
:100E24002326710123229101232611022324810206
:100E3400232291022320210323248101938B050083
:100E4400EF00C010970700009387C71383AC070017
:100E5400130A10009309F0FF03A98C146308090214
:100E6400832449001384F4FF63420402939424000E
:100E7400B304990063880B0483A744106384770543
:100E84001304F4FF9384C4FFE31634FF03248102A4
:100E940003250B008320C10283244102032901029C
:100EA4008329C101032A8101832A4101032B010102
:100EB400832BC100032C8100832C41001301010307
:100EC4006F00400A8327490083A644009387F7FFF5
:100ED400638A870423A20400E38406FA832789181B
:100EE40033178A00032C4900B377F700639E070089
:100EF400E780060083274900E39087F783A78C14D3
:100F0400E38027F96FF05FF58327C91883A54408A8
:100F14003377F700631C070013850A00E780060097
:100F24006FF05FFD232289006FF01FFB138505001E
:100F3400E78006006FF01FFC6780000067800000F8
:100F44006780000067800000678000006780000001
:100F5400130510006780000013051000678000006F
:080F64006780000067800000B7
:100F6C0068030080280200801C020080A40100801D
:080F7C005802008068030080A8
:040F8400000000C0A9
:040F88000000000065
:08100000BC030080B80400806D
:0410080070040080F0
:02000004C0003A
:1000000000000000EC0200C0540300C0BC0300C0AC
:1000100000000000000000000000000000000000E0
:1000200000000000000000000000000000000000D0
:1000300000000000000000000000000000000000C0
:1000400000000000000000000000000000000000B0
:1000500000000000000000000000000000000000A0
:100060000000000000000000000000000000000090
:100070000000000000000000000000000000000080
:100080000000000000000000000000000000000070
:100090000000000000000000000000000000000060
:1000A000000000000000000001000000000000004F
:1000B0000E33CDAB34126DE6ECDE05000B00000014
:1000C0000000000000000000000000000000000030
:1000D0000000000000000000000000000000000020
:1000E0000000000000000000000000000000000010
:1000F0000000000000000000000000000000000000
:100428000B00000008000000240000001C00000071
:1004380034000000300000002C0000000400000020
:10044800100000000C00000014000000640000C050
:10045800600000C0400000C0500000C0340000C070
:10046800300000C0200000C0000100C0080000C02B
:10047800040000C0000000C000000000D00400C05C
:04048800000000C0B0
:04000005800003D89C
:00000001FF
